:020000040000FA
:0400000018EF00F005
:10003000956A0F0E946E936A836A816A826800EEF5
:1000400008F0076A000EF66E080EF76E000EF86EE6
:100050003BEC00F0E852FCE0056E05BE65D0072AD7
:1000600005C0EEFF64EC00F0836E78EC00F080ECED
:1000700000F0836AEDD7700E826E82A0FF0C82A220
:10008000010C82A4020C82A6030CB00E826E82A028
:10009000040C82A2050C82A4060C82A6070CD00ECA
:1000A000826E82A0080C82A2090C82A40A0C82A68D
:1000B0000B0CE00E826E82A00C0C82A20D0C82A4AE
:1000C0000E0C82A60F0C000C0550020DF350F92601
:1000D000000C390C5E0C790C710C7D0C770C7C0CCF
:1000E000390C5E0C790C710C7D0C770C7C0C390C86
:1000F0000550F6260800F5CF06F0000EF66E120049
:100100000A0E036E3C0E026E816806C004F00406FF
:10011000FEE1816A06C004F00406FEE10206F4E195
:100120000306F0E1816A120000EE08F0075280E059
:10013000EECF05F064EC00F0836E78EC00F080EC1C
:1001400000F0836AAAEC00F00706F2E100EE08F086
:1001500018EF00F0FF0E006E150E016E0000010694
:08016000FDE10006F9E11200C7
:10080000009F8D7E776A5E544F463F3B352F2A27E7
:020000040030CA
:03000100011F1EBE
:020005008381F5
:060008000FC00FE00F40E5
:00000001FF
